{
  "txid": "b5c8d30d5bae5b0abc44ee38816dc8c6bcb7de63ecfda3ba6099d30b4e650f46",
  "hash": "b5c8d30d5bae5b0abc44ee38816dc8c6bcb7de63ecfda3ba6099d30b4e650f46",
  "version": 1,
  "size": 338,
  "vsize": 338,
  "weight": 1352,
  "locktime": 0,
  "vin": [
    {
      "txid": "234c704755dbf83653c157b86b3346651e5537692376fcd3ae6fffd93f141222",
      "vout": 0,
      "scriptSig": {
        "asm": "3044022064263b2af280ffddbefbb136b47b4c40b92befbff0211167b47cd89df0ab894d02206b1c7bad71a2e4feefa2c0f062de7537a23ebb23f95edcbbc514347b356701b9[ALL] 02cefe6dd8b42642d6a4e9b2d9cbbd9a32aea7476f5452d0b9df8b84deff9d4188",
        "hex": "473044022064263b2af280ffddbefbb136b47b4c40b92befbff0211167b47cd89df0ab894d02206b1c7bad71a2e4feefa2c0f062de7537a23ebb23f95edcbbc514347b356701b9012102cefe6dd8b42642d6a4e9b2d9cbbd9a32aea7476f5452d0b9df8b84deff9d4188"
      },
      "sequence": 4294967295
    },
    {
      "txid": "8595a2e02ff061cbbc44bd428ce1c40668d5bf1518cb01f660f5cc2f58974519",
      "vout": 0,
      "scriptSig": {
        "asm": "304402202d7ff142e30cd88b43ca7b51b7a8581e1f861827d996385554ced66d5bdbca270220320d3d460bdbd1d22c09b221e11db575603355aedac332ac3d558154d654b1f7[ALL] 03bc6bf57983c31cdd5f3ac9912361460a2a96b3a667c958a150eb05fefab118b1",
        "hex": "47304402202d7ff142e30cd88b43ca7b51b7a8581e1f861827d996385554ced66d5bdbca270220320d3d460bdbd1d22c09b221e11db575603355aedac332ac3d558154d654b1f7012103bc6bf57983c31cdd5f3ac9912361460a2a96b3a667c958a150eb05fefab118b1"
      },
      "sequence": 4294967295
    }
  ],
  "vout": [
    {
      "value": 0.09657247,
      "n": 0,
      "scriptPubKey": {
        "asm": "OP_DUP OP_HASH160 fd2d6215f93e43c5e19caf454ba7f4f943b9cf52 OP_EQUALVERIFY OP_CHECKSIG",
        "hex": "76a914fd2d6215f93e43c5e19caf454ba7f4f943b9cf5288ac",
        "address": "1Q5gKox7JG6iCsAmBxuGNrkRyFRtJNMQ66",
        "type": "pubkeyhash",
        "addresses": [
          "1Q5gKox7JG6iCsAmBxuGNrkRyFRtJNMQ66"
        ],
        "reqSigs": 1
      }
    }
  ],
  "hex": "01000000022212143fd9ff6faed3fc76236937551e6546336bb857c15336f8db5547704c23000000006a473044022064263b2af280ffddbefbb136b47b4c40b92befbff0211167b47cd89df0ab894d02206b1c7bad71a2e4feefa2c0f062de7537a23ebb23f95edcbbc514347b356701b9012102cefe6dd8b42642d6a4e9b2d9cbbd9a32aea7476f5452d0b9df8b84deff9d4188ffffffff194597582fccf560f601cb1815bfd56806c4e18c42bd44bccb61f02fe0a29585000000006a47304402202d7ff142e30cd88b43ca7b51b7a8581e1f861827d996385554ced66d5bdbca270220320d3d460bdbd1d22c09b221e11db575603355aedac332ac3d558154d654b1f7012103bc6bf57983c31cdd5f3ac9912361460a2a96b3a667c958a150eb05fefab118b1ffffffff019f5b9300000000001976a914fd2d6215f93e43c5e19caf454ba7f4f943b9cf5288ac00000000",
  "blockhash": "00000000000000000000b15ac7d751a7bb4acbbdce1347b889b0f55272666542",
  "confirmations": 541,
  "time": 1656374364,
  "blocktime": 1656374364
}
